{
  "contractName": "TicketStructLib",
  "abi": [
    {
      "constant": true,
      "inputs": [
        {
          "internalType": "address",
          "name": "addressForConversion",
          "type": "address"
        }
      ],
      "name": "addressToString",
      "outputs": [
        {
          "internalType": "string",
          "name": "",
          "type": "string"
        }
      ],
      "payable": false,
      "stateMutability": "pure",
      "type": "function"
    },
    {
      "constant": true,
      "inputs": [
        {
          "internalType": "string",
          "name": "stringArgument",
          "type": "string"
        }
      ],
      "name": "isANonEmptyString",
      "outputs": [
        {
          "internalType": "bool",
          "name": "",
          "type": "bool"
        }
      ],
      "payable": false,
      "stateMutability": "pure",
      "type": "function"
    },
    {
      "constant": true,
      "inputs": [
        {
          "internalType": "string",
          "name": "stringArgument",
          "type": "string"
        }
      ],
      "name": "isAnEmptyString",
      "outputs": [
        {
          "internalType": "bool",
          "name": "",
          "type": "bool"
        }
      ],
      "payable": false,
      "stateMutability": "pure",
      "type": "function"
    },
    {
      "constant": true,
      "inputs": [
        {
          "internalType": "bytes",
          "name": "byteArgument",
          "type": "bytes"
        }
      ],
      "name": "isANonEmptyByteValue",
      "outputs": [
        {
          "internalType": "bool",
          "name": "",
          "type": "bool"
        }
      ],
      "payable": false,
      "stateMutability": "pure",
      "type": "function"
    },
    {
      "constant": true,
      "inputs": [
        {
          "internalType": "address",
          "name": "addressArgument",
          "type": "address"
        }
      ],
      "name": "isAValidAddress",
      "outputs": [
        {
          "internalType": "bool",
          "name": "",
          "type": "bool"
        }
      ],
      "payable": false,
      "stateMutability": "pure",
      "type": "function"
    },
    {
      "constant": true,
      "inputs": [
        {
          "internalType": "uint256",
          "name": "integerValue",
          "type": "uint256"
        }
      ],
      "name": "isAValidInteger",
      "outputs": [
        {
          "internalType": "bool",
          "name": "",
          "type": "bool"
        }
      ],
      "payable": false,
      "stateMutability": "pure",
      "type": "function"
    },
    {
      "constant": true,
      "inputs": [
        {
          "internalType": "address",
          "name": "x",
          "type": "address"
        }
      ],
      "name": "translateAddressToString",
      "outputs": [
        {
          "internalType": "string",
          "name": "",
          "type": "string"
        }
      ],
      "payable": false,
      "stateMutability": "pure",
      "type": "function"
    },
    {
      "constant": true,
      "inputs": [
        {
          "internalType": "string",
          "name": "a",
          "type": "string"
        },
        {
          "internalType": "string",
          "name": "b",
          "type": "string"
        }
      ],
      "name": "hashCompareWithLengthCheck",
      "outputs": [
        {
          "internalType": "bool",
          "name": "",
          "type": "bool"
        }
      ],
      "payable": false,
      "stateMutability": "pure",
      "type": "function"
    },
    {
      "constant": true,
      "inputs": [
        {
          "internalType": "string",
          "name": "a",
          "type": "string"
        }
      ],
      "name": "isATrueValue",
      "outputs": [
        {
          "internalType": "bool",
          "name": "",
          "type": "bool"
        }
      ],
      "payable": false,
      "stateMutability": "pure",
      "type": "function"
    }
  ],
  "bytecode": "0x610a44610026600b82828239805160001a60731461001957fe5b30600052607381538281f3fe73000000000000000000000000000000000000000030146080604052600436106100a85760003560e01c8063585e5e5111610070578063585e5e51146101aa5780635e57966d146101da5780638301e9ca1461020a578063d671fae11461023a578063ffc492811461026a576100a8565b8063038e363e146100ad578063143e4c6e146100dd57806322ae087d1461010d57806345717f281461013d5780634ed180441461016d575b600080fd5b6100c760048036036100c29190810190610741565b61029a565b6040516100d49190610827565b60405180910390f35b6100f760048036036100f2919081019061062a565b6102a6565b6040516101049190610827565b60405180910390f35b61012760048036036101229190810190610694565b6102df565b6040516101349190610827565b60405180910390f35b610157600480360361015291908101906106d5565b6102ec565b6040516101649190610827565b60405180910390f35b81801561017957600080fd5b50610194600480360361018f919081019061076a565b610358565b6040516101a19190610827565b60405180910390f35b6101c460048036036101bf9190810190610653565b610368565b6040516101d19190610827565b60405180910390f35b6101f460048036036101ef919081019061062a565b610375565b6040516102019190610864565b60405180910390f35b610224600480360361021f9190810190610694565b61043c565b6040516102319190610827565b60405180910390f35b610254600480360361024f919081019061062a565b610449565b6040516102619190610864565b60405180910390f35b610284600480360361027f9190810190610694565b610510565b6040516102919190610827565b60405180910390f35b60008082119050919050565b60008073ffffffffffffffffffffffffffffffffffffffff168273ffffffffffffffffffffffffffffffffffffffff1614159050919050565b6000808251149050919050565b600081518351146103005760009050610352565b816040516020016103119190610842565b60405160208183030381529060405280519060200120836040516020016103389190610842565b604051602081830303815290604052805190602001201490505b92915050565b6000428284011115905092915050565b6000808251119050919050565b60608060146040519080825280601f01601f1916602001820160405280156103ac5781602001600182028038833980820191505090505b50905060008090505b6014811015610432578060130360080260020a8473ffffffffffffffffffffffffffffffffffffffff16816103e657fe5b0460f81b8282815181106103f657fe5b60200101907effffffffffffffffffffffffffffffffffffffffffffffffffffffffffffff1916908160001a90535080806001019150506103b5565b5080915050919050565b6000808251119050919050565b60608060146040519080825280601f01601f1916602001820160405280156104805781602001600182028038833980820191505090505b50905060008090505b6014811015610506578060130360080260020a8473ffffffffffffffffffffffffffffffffffffffff16816104ba57fe5b0460f81b8282815181106104ca57fe5b60200101907effffffffffffffffffffffffffffffffffffffffffffffffffffffffffffff1916908160001a9053508080600101915050610489565b5080915050919050565b6000610551826040518060400160405280600481526020017f74727565000000000000000000000000000000000000000000000000000000008152506102ec565b9050919050565b600081359050610567816109d3565b92915050565b600082601f83011261057e57600080fd5b813561059161058c826108b3565b610886565b915080825260208301602083018583830111156105ad57600080fd5b6105b8838284610980565b50505092915050565b600082601f8301126105d257600080fd5b81356105e56105e0826108df565b610886565b9150808252602083016020830185838301111561060157600080fd5b61060c838284610980565b50505092915050565b600081359050610624816109ea565b92915050565b60006020828403121561063c57600080fd5b600061064a84828501610558565b91505092915050565b60006020828403121561066557600080fd5b600082013567ffffffffffffffff81111561067f57600080fd5b61068b8482850161056d565b91505092915050565b6000602082840312156106a657600080fd5b600082013567ffffffffffffffff8111156106c057600080fd5b6106cc848285016105c1565b91505092915050565b600080604083850312156106e857600080fd5b600083013567ffffffffffffffff81111561070257600080fd5b61070e858286016105c1565b925050602083013567ffffffffffffffff81111561072b57600080fd5b610737858286016105c1565b9150509250929050565b60006020828403121561075357600080fd5b600061076184828501610615565b91505092915050565b6000806040838503121561077d57600080fd5b600061078b85828601610615565b925050602061079c85828601610615565b9150509250929050565b6107af8161094a565b82525050565b60006107c08261090b565b6107ca8185610916565b93506107da81856020860161098f565b6107e3816109c2565b840191505092915050565b60006107f98261090b565b6108038185610927565b935061081381856020860161098f565b61081c816109c2565b840191505092915050565b600060208201905061083c60008301846107a6565b92915050565b6000602082019050818103600083015261085c81846107b5565b905092915050565b6000602082019050818103600083015261087e81846107ee565b905092915050565b6000604051905081810181811067ffffffffffffffff821117156108a957600080fd5b8060405250919050565b600067ffffffffffffffff8211156108ca57600080fd5b601f19601f8301169050602081019050919050565b600067ffffffffffffffff8211156108f657600080fd5b601f19601f8301169050602081019050919050565b600081519050919050565b600082825260208201905092915050565b600082825260208201905092915050565b600061094382610956565b9050919050565b60008115159050919050565b600073ffffffffffffffffffffffffffffffffffffffff82169050919050565b6000819050919050565b82818337600083830152505050565b60005b838110156109ad578082015181840152602081019050610992565b838111156109bc576000848401525b50505050565b6000601f19601f8301169050919050565b6109dc81610938565b81146109e757600080fd5b50565b6109f381610976565b81146109fe57600080fd5b5056fea365627a7a723158200bcc1798c9f7ed38e050f8dc9f8ecd72bf05d5c9549e42317b053474ae4df1766c6578706572696d656e74616cf564736f6c63430005100040",
  "source": "pragma solidity >=0.4.21 <=0.6.10;\npragma experimental ABIEncoderV2;\n\nlibrary TicketStructLib {\n\n    struct Issuer {\n        string issuerId;\n        address issuerAddress;\n        string issuerName;\n        uint256 createdAt;\n        uint256 updatedAt;\n    }\n\n    struct Show {\n        string showId;\n        address issuer;\n        string showName;\n        uint256 totalNumberOfTickets;\n        uint256 availableTicketCount;\n        uint256 showPrice;\n        uint256 showTime;\n        string showTimeAsGMT;\n        uint256 createdAt;\n        uint256 updatedAt;\n    }\n\n    struct TicketBooking {\n        string ticketId;\n        string showId;\n        uint256 showPrice;\n        uint256 showTime;\n        address issuer;\n        address customer;\n        uint8 isLocked;\n        uint lockedAt;\n        uint lockPeriodInSeconds;\n        uint claimableFrom;\n        uint256 claimedAt;\n        uint256 createdAt;\n    }\n\n    function canUnLockTicket(uint256 lockedTime, uint256 lockPeriod) public returns (bool) {\n        return lockedTime + lockPeriod <= block.timestamp;\n    }\n\n     function addressToString(address addressForConversion) public pure returns (string memory)  {\n        bytes memory b = new bytes(20);\n        for (uint i = 0; i < 20; i++)\n            b[i] = byte(uint8(uint(addressForConversion) / (2**(8*(19 - i)))));\n        return string(b);\n    }\n\n    function isANonEmptyString(string memory stringArgument) public pure returns(bool){\n        return bytes(stringArgument).length > 0;\n    }\n\n    function isAnEmptyString(string memory stringArgument) public pure returns(bool){\n        return bytes(stringArgument).length == 0;\n    }\n\n    function isANonEmptyByteValue(bytes memory byteArgument) public pure returns(bool){\n        return byteArgument.length > 0;\n    }\n\n    function isAValidAddress(address addressArgument) public pure returns(bool){\n        return addressArgument != address(0x0);\n    }\n\n    function isAValidInteger(uint integerValue) public pure returns(bool){\n        return integerValue > 0;\n    }\n\n     function translateAddressToString(address x) public pure returns(string memory) {\n        bytes memory b = new bytes(20);\n        for (uint i = 0; i < 20; i++)\n            b[i] = byte(uint8(uint(x) / (2**(8*(19 - i)))));\n        return string(b);\n    }\n\n    function hashCompareWithLengthCheck(string memory a, string memory b) public pure returns (bool) {\n        if(bytes(a).length != bytes(b).length) {\n            return false;\n        } else {\n            return keccak256(abi.encode(a)) == keccak256(abi.encode(b));\n        }\n    }\n\n    function isATrueValue(string memory a) public pure returns (bool) {\n        return hashCompareWithLengthCheck(a, \"true\");\n    }\n}",
  "sourcePath": "/Users/lakshmikanth/Documents/biconomy/onlineticketbooking/contracts/interfaces/TicketStructLib.sol",
  "compiler": {
    "name": "solc",
    "version": "0.5.16+commit.9c3226ce.Emscripten.clang"
  },
  "schemaVersion": "3.2.0",
  "updatedAt": "2020-12-12T18:07:49.392Z",
  "networkType": "ethereum",
  "devdoc": {
    "methods": {}
  },
  "userdoc": {
    "methods": {}
  }
}