{
  "contractName": "TicketBookingSystem",
  "abi": [
    {
      "inputs": [
        {
          "internalType": "address",
          "name": "_owner",
          "type": "address"
        }
      ],
      "payable": false,
      "stateMutability": "nonpayable",
      "type": "constructor"
    },
    {
      "constant": true,
      "inputs": [
        {
          "internalType": "address",
          "name": "",
          "type": "address"
        }
      ],
      "name": "issuerMap",
      "outputs": [
        {
          "internalType": "string",
          "name": "issuerId",
          "type": "string"
        },
        {
          "internalType": "address",
          "name": "issuerAddress",
          "type": "address"
        },
        {
          "internalType": "string",
          "name": "issuerName",
          "type": "string"
        },
        {
          "internalType": "uint256",
          "name": "createdAt",
          "type": "uint256"
        },
        {
          "internalType": "uint256",
          "name": "updatedAt",
          "type": "uint256"
        }
      ],
      "payable": false,
      "stateMutability": "view",
      "type": "function"
    },
    {
      "constant": true,
      "inputs": [],
      "name": "owner",
      "outputs": [
        {
          "internalType": "address",
          "name": "",
          "type": "address"
        }
      ],
      "payable": false,
      "stateMutability": "view",
      "type": "function"
    },
    {
      "constant": true,
      "inputs": [
        {
          "internalType": "string",
          "name": "",
          "type": "string"
        }
      ],
      "name": "showMap",
      "outputs": [
        {
          "internalType": "string",
          "name": "showId",
          "type": "string"
        },
        {
          "internalType": "address",
          "name": "issuer",
          "type": "address"
        },
        {
          "internalType": "string",
          "name": "showName",
          "type": "string"
        },
        {
          "internalType": "uint256",
          "name": "totalNumberOfTickets",
          "type": "uint256"
        },
        {
          "internalType": "uint256",
          "name": "availableTicketCount",
          "type": "uint256"
        },
        {
          "internalType": "uint256",
          "name": "showPrice",
          "type": "uint256"
        },
        {
          "internalType": "uint256",
          "name": "showTime",
          "type": "uint256"
        },
        {
          "internalType": "string",
          "name": "showTimeAsGMT",
          "type": "string"
        },
        {
          "internalType": "uint256",
          "name": "createdAt",
          "type": "uint256"
        },
        {
          "internalType": "uint256",
          "name": "updatedAt",
          "type": "uint256"
        }
      ],
      "payable": false,
      "stateMutability": "view",
      "type": "function"
    },
    {
      "constant": true,
      "inputs": [
        {
          "internalType": "string",
          "name": "",
          "type": "string"
        }
      ],
      "name": "ticketBookingCustomerMap",
      "outputs": [
        {
          "internalType": "address",
          "name": "",
          "type": "address"
        }
      ],
      "payable": false,
      "stateMutability": "view",
      "type": "function"
    },
    {
      "constant": true,
      "inputs": [
        {
          "internalType": "string",
          "name": "",
          "type": "string"
        }
      ],
      "name": "ticketBookingIssuerMap",
      "outputs": [
        {
          "internalType": "address",
          "name": "",
          "type": "address"
        }
      ],
      "payable": false,
      "stateMutability": "view",
      "type": "function"
    },
    {
      "constant": true,
      "inputs": [
        {
          "internalType": "string",
          "name": "",
          "type": "string"
        }
      ],
      "name": "ticketBookingMap",
      "outputs": [
        {
          "internalType": "string",
          "name": "ticketId",
          "type": "string"
        },
        {
          "internalType": "string",
          "name": "showId",
          "type": "string"
        },
        {
          "internalType": "uint256",
          "name": "showPrice",
          "type": "uint256"
        },
        {
          "internalType": "uint256",
          "name": "showTime",
          "type": "uint256"
        },
        {
          "internalType": "address",
          "name": "issuer",
          "type": "address"
        },
        {
          "internalType": "address",
          "name": "customer",
          "type": "address"
        },
        {
          "internalType": "uint8",
          "name": "isLocked",
          "type": "uint8"
        },
        {
          "internalType": "uint256",
          "name": "lockedAt",
          "type": "uint256"
        },
        {
          "internalType": "uint256",
          "name": "lockPeriodInSeconds",
          "type": "uint256"
        },
        {
          "internalType": "uint256",
          "name": "claimableFrom",
          "type": "uint256"
        },
        {
          "internalType": "uint256",
          "name": "claimedAt",
          "type": "uint256"
        },
        {
          "internalType": "uint256",
          "name": "createdAt",
          "type": "uint256"
        }
      ],
      "payable": false,
      "stateMutability": "view",
      "type": "function"
    },
    {
      "constant": true,
      "inputs": [],
      "name": "getOwner",
      "outputs": [
        {
          "internalType": "address",
          "name": "",
          "type": "address"
        }
      ],
      "payable": false,
      "stateMutability": "view",
      "type": "function"
    },
    {
      "constant": false,
      "inputs": [
        {
          "internalType": "string",
          "name": "_issuerId",
          "type": "string"
        },
        {
          "internalType": "address",
          "name": "_issuerAddress",
          "type": "address"
        },
        {
          "internalType": "string",
          "name": "_issuerName",
          "type": "string"
        }
      ],
      "name": "addATicketIssuer",
      "outputs": [],
      "payable": false,
      "stateMutability": "nonpayable",
      "type": "function"
    },
    {
      "constant": true,
      "inputs": [
        {
          "internalType": "address",
          "name": "_issuerAddress",
          "type": "address"
        }
      ],
      "name": "getTicketIssuerDetails",
      "outputs": [
        {
          "components": [
            {
              "internalType": "string",
              "name": "issuerId",
              "type": "string"
            },
            {
              "internalType": "address",
              "name": "issuerAddress",
              "type": "address"
            },
            {
              "internalType": "string",
              "name": "issuerName",
              "type": "string"
            },
            {
              "internalType": "uint256",
              "name": "createdAt",
              "type": "uint256"
            },
            {
              "internalType": "uint256",
              "name": "updatedAt",
              "type": "uint256"
            }
          ],
          "internalType": "struct TicketStructLib.Issuer",
          "name": "issuer",
          "type": "tuple"
        }
      ],
      "payable": false,
      "stateMutability": "view",
      "type": "function"
    },
    {
      "constant": true,
      "inputs": [
        {
          "internalType": "address",
          "name": "_issuerAddress",
          "type": "address"
        }
      ],
      "name": "doesIssuerExist",
      "outputs": [
        {
          "internalType": "bool",
          "name": "",
          "type": "bool"
        }
      ],
      "payable": false,
      "stateMutability": "view",
      "type": "function"
    },
    {
      "constant": false,
      "inputs": [
        {
          "internalType": "string",
          "name": "_showId",
          "type": "string"
        },
        {
          "internalType": "address",
          "name": "_issuer",
          "type": "address"
        },
        {
          "internalType": "string",
          "name": "_showName",
          "type": "string"
        },
        {
          "internalType": "uint256",
          "name": "_totalNumberOfTickets",
          "type": "uint256"
        },
        {
          "internalType": "uint256",
          "name": "_showPrice",
          "type": "uint256"
        },
        {
          "internalType": "uint256",
          "name": "_showTime",
          "type": "uint256"
        },
        {
          "internalType": "string",
          "name": "_showTimeAsGMT",
          "type": "string"
        }
      ],
      "name": "createAShow",
      "outputs": [],
      "payable": false,
      "stateMutability": "nonpayable",
      "type": "function"
    },
    {
      "constant": true,
      "inputs": [
        {
          "internalType": "string",
          "name": "_showId",
          "type": "string"
        }
      ],
      "name": "getShowDetails",
      "outputs": [
        {
          "components": [
            {
              "internalType": "string",
              "name": "showId",
              "type": "string"
            },
            {
              "internalType": "address",
              "name": "issuer",
              "type": "address"
            },
            {
              "internalType": "string",
              "name": "showName",
              "type": "string"
            },
            {
              "internalType": "uint256",
              "name": "totalNumberOfTickets",
              "type": "uint256"
            },
            {
              "internalType": "uint256",
              "name": "availableTicketCount",
              "type": "uint256"
            },
            {
              "internalType": "uint256",
              "name": "showPrice",
              "type": "uint256"
            },
            {
              "internalType": "uint256",
              "name": "showTime",
              "type": "uint256"
            },
            {
              "internalType": "string",
              "name": "showTimeAsGMT",
              "type": "string"
            },
            {
              "internalType": "uint256",
              "name": "createdAt",
              "type": "uint256"
            },
            {
              "internalType": "uint256",
              "name": "updatedAt",
              "type": "uint256"
            }
          ],
          "internalType": "struct TicketStructLib.Show",
          "name": "show",
          "type": "tuple"
        }
      ],
      "payable": false,
      "stateMutability": "view",
      "type": "function"
    },
    {
      "constant": true,
      "inputs": [
        {
          "internalType": "string",
          "name": "_showId",
          "type": "string"
        }
      ],
      "name": "doesShowExist",
      "outputs": [
        {
          "internalType": "bool",
          "name": "",
          "type": "bool"
        }
      ],
      "payable": false,
      "stateMutability": "view",
      "type": "function"
    },
    {
      "constant": false,
      "inputs": [
        {
          "internalType": "string",
          "name": "_ticketId",
          "type": "string"
        },
        {
          "internalType": "string",
          "name": "_showId",
          "type": "string"
        },
        {
          "internalType": "address",
          "name": "_issuer",
          "type": "address"
        },
        {
          "internalType": "address",
          "name": "_customer",
          "type": "address"
        },
        {
          "internalType": "uint8",
          "name": "_lockPeriodInSeconds",
          "type": "uint8"
        }
      ],
      "name": "bookATicket",
      "outputs": [],
      "payable": false,
      "stateMutability": "nonpayable",
      "type": "function"
    },
    {
      "constant": true,
      "inputs": [
        {
          "internalType": "string",
          "name": "_ticketId",
          "type": "string"
        }
      ],
      "name": "getTicketBookingDetails",
      "outputs": [
        {
          "components": [
            {
              "internalType": "string",
              "name": "ticketId",
              "type": "string"
            },
            {
              "internalType": "string",
              "name": "showId",
              "type": "string"
            },
            {
              "internalType": "uint256",
              "name": "showPrice",
              "type": "uint256"
            },
            {
              "internalType": "uint256",
              "name": "showTime",
              "type": "uint256"
            },
            {
              "internalType": "address",
              "name": "issuer",
              "type": "address"
            },
            {
              "internalType": "address",
              "name": "customer",
              "type": "address"
            },
            {
              "internalType": "uint8",
              "name": "isLocked",
              "type": "uint8"
            },
            {
              "internalType": "uint256",
              "name": "lockedAt",
              "type": "uint256"
            },
            {
              "internalType": "uint256",
              "name": "lockPeriodInSeconds",
              "type": "uint256"
            },
            {
              "internalType": "uint256",
              "name": "claimableFrom",
              "type": "uint256"
            },
            {
              "internalType": "uint256",
              "name": "claimedAt",
              "type": "uint256"
            },
            {
              "internalType": "uint256",
              "name": "createdAt",
              "type": "uint256"
            }
          ],
          "internalType": "struct TicketStructLib.TicketBooking",
          "name": "ticketBooking",
          "type": "tuple"
        }
      ],
      "payable": false,
      "stateMutability": "view",
      "type": "function"
    },
    {
      "constant": false,
      "inputs": [
        {
          "internalType": "string",
          "name": "_ticketId",
          "type": "string"
        }
      ],
      "name": "claimATicket",
      "outputs": [],
      "payable": false,
      "stateMutability": "nonpayable",
      "type": "function"
    },
    {
      "constant": true,
      "inputs": [
        {
          "internalType": "string",
          "name": "_ticketId",
          "type": "string"
        }
      ],
      "name": "doesTicketExist",
      "outputs": [
        {
          "internalType": "bool",
          "name": "",
          "type": "bool"
        }
      ],
      "payable": false,
      "stateMutability": "view",
      "type": "function"
    },
    {
      "constant": false,
      "inputs": [
        {
          "internalType": "string",
          "name": "_ticketId",
          "type": "string"
        },
        {
          "internalType": "address",
          "name": "_customer",
          "type": "address"
        }
      ],
      "name": "isTickedLockedForCustomer",
      "outputs": [
        {
          "internalType": "bool",
          "name": "",
          "type": "bool"
        }
      ],
      "payable": false,
      "stateMutability": "nonpayable",
      "type": "function"
    },
    {
      "constant": false,
      "inputs": [
        {
          "internalType": "string",
          "name": "_ticketId",
          "type": "string"
        }
      ],
      "name": "isTicketClaimed",
      "outputs": [
        {
          "internalType": "bool",
          "name": "",
          "type": "bool"
        }
      ],
      "payable": false,
      "stateMutability": "nonpayable",
      "type": "function"
    },
    {
      "constant": false,
      "inputs": [
        {
          "internalType": "string",
          "name": "_ticketId",
          "type": "string"
        }
      ],
      "name": "isTicketLocked",
      "outputs": [
        {
          "internalType": "bool",
          "name": "",
          "type": "bool"
        }
      ],
      "payable": false,
      "stateMutability": "nonpayable",
      "type": "function"
    }
  ],
  "bytecode": "0x60806040523480156200001157600080fd5b5060405162004bcf38038062004bcf833981810160405262000037919081019062000095565b806000806101000a81548173ffffffffffffffffffffffffffffffffffffffff021916908373ffffffffffffffffffffffffffffffffffffffff160217905550506200010f565b6000815190506200008f81620000f5565b92915050565b600060208284031215620000a857600080fd5b6000620000b8848285016200007e565b91505092915050565b6000620000ce82620000d5565b9050919050565b600073ffffffffffffffffffffffffffffffffffffffff82169050919050565b6200010081620000c1565b81146200010c57600080fd5b50565b614ab0806200011f6000396000f3fe608060405234801561001057600080fd5b506004361061012c5760003560e01c806378e38d2f116100ad578063def9fac111610071578063def9fac1146103b0578063e5c03ddb146103e0578063e8eea6ef14610410578063edff8bc714610440578063fcfdbb54146104795761012c565b806378e38d2f146102e4578063893d20e8146103145780638da5cb5b14610332578063b191003214610350578063cc0b0311146103805761012c565b80634d22d05f116100f45780634d22d05f1461021c57806350b0d9cd1461024c578063524457f11461027c57806353339309146102ac57806356866188146102c85761012c565b806313981202146101315780632a8e2ba2146101615780632c7aaeb91461019c5780634b6dfc5b146101b85780634cd31a2c146101e8575b600080fd5b61014b6004803603610146919081019061326e565b610495565b604051610158919061422b565b60405180910390f35b61017b600480360361017691908101906131ec565b61061a565b6040516101939c9b9a9998979695949392919061437a565b60405180910390f35b6101b660048036036101b19190810190613341565b61080d565b005b6101d260048036036101cd919081019061322d565b610ff1565b6040516101df919061422b565b60405180910390f35b61020260048036036101fd919081019061319a565b611067565b604051610213959493929190614268565b60405180910390f35b6102366004803603610231919081019061322d565b6111ed565b604051610243919061422b565b60405180910390f35b6102666004803603610261919081019061322d565b611273565b6040516102739190614826565b60405180910390f35b6102966004803603610291919081019061319a565b611547565b6040516102a391906147e2565b60405180910390f35b6102c660048036036102c1919081019061322d565b611796565b005b6102e260048036036102dd91908101906132c2565b61195e565b005b6102fe60048036036102f9919081019061322d565b611ce8565b60405161030b919061422b565b60405180910390f35b61031c611ddc565b60405161032991906141f5565b60405180910390f35b61033a611e05565b60405161034791906141f5565b60405180910390f35b61036a6004803603610365919081019061322d565b611e2a565b604051610377919061422b565b60405180910390f35b61039a6004803603610395919081019061322d565b611f1e565b6040516103a79190614804565b60405180910390f35b6103ca60048036036103c5919081019061319a565b612217565b6040516103d7919061422b565b60405180910390f35b6103fa60048036036103f591908101906131ec565b61232c565b60405161040791906141f5565b60405180910390f35b61042a600480360361042591908101906131ec565b612375565b60405161043791906141f5565b60405180910390f35b61045a600480360361045591908101906131ec565b6123be565b6040516104709a999897969594939291906142c9565b60405180910390f35b610493600480360361048e9190810190613427565b612610565b005b60006104a083611e2a565b6104df576040517f08c379a00000000000000000000000000000000000000000000000000000000081526004016104d690614722565b60405180910390fd5b73__TicketStructLib_______________________63143e4c6e836040518263ffffffff1660e01b81526004016105169190614210565b60206040518083038186803b15801561052e57600080fd5b505af4158015610542573d6000803e3d6000fd5b505050506040513d601f19601f8201168201806040525061056691908101906131c3565b6105a5576040517f08c379a000000000000000000000000000000000000000000000000000000000815260040161059c906144a2565b60405180910390fd5b8173ffffffffffffffffffffffffffffffffffffffff166005846040516105cc91906141de565b908152602001604051809103902060009054906101000a900473ffffffffffffffffffffffffffffffffffffffff1673ffffffffffffffffffffffffffffffffffffffff1614905092915050565b600381805160208101820180518482526020830160208501208183528095505050505050600091509050806000018054600181600116156101000203166002900480601f0160208091040260200160405190810160405280929190818152602001828054600181600116156101000203166002900480156106dc5780601f106106b1576101008083540402835291602001916106dc565b820191906000526020600020905b8154815290600101906020018083116106bf57829003601f168201915b505050505090806001018054600181600116156101000203166002900480601f01602080910402602001604051908101604052809291908181526020018280546001816001161561010002031660029004801561077a5780601f1061074f5761010080835404028352916020019161077a565b820191906000526020600020905b81548152906001019060200180831161075d57829003601f168201915b5050505050908060020154908060030154908060040160009054906101000a900473ffffffffffffffffffffffffffffffffffffffff16908060050160009054906101000a900473ffffffffffffffffffffffffffffffffffffffff16908060050160149054906101000a900460ff169080600601549080600701549080600801549080600901549080600a015490508c565b858073ffffffffffffffffffffffffffffffffffffffff16600160003373ffffffffffffffffffffffffffffffffffffffff1673ffffffffffffffffffffffffffffffffffffffff16815260200190815260200160002060010160009054906101000a900473ffffffffffffffffffffffffffffffffffffffff1673ffffffffffffffffffffffffffffffffffffffff16146108de576040517f08c379a00000000000000000000000000000000000000000000000000000000081526004016108d5906146c2565b60405180910390fd5b73__TicketStructLib_______________________638301e9ca896040518263ffffffff1660e01b81526004016109159190614246565b60206040518083038186803b15801561092d57600080fd5b505af4158015610941573d6000803e3d6000fd5b505050506040513d601f19601f8201168201806040525061096591908101906131c3565b6109a4576040517f08c379a000000000000000000000000000000000000000000000000000000000815260040161099b90614502565b60405180910390fd5b6109ad87612217565b6109ec576040517f08c379a00000000000000000000000000000000000000000000000000000000081526004016109e390614622565b60405180910390fd5b8673ffffffffffffffffffffffffffffffffffffffff163373ffffffffffffffffffffffffffffffffffffffff1614610a5a576040517f08c379a0000000000000000000000000000000000000000000000000000000008152600401610a5190614642565b60405180910390fd5b610a6388611ce8565b15610aa3576040517f08c379a0000000000000000000000000000000000000000000000000000000008152600401610a9a906146e2565b60405180910390fd5b73__TicketStructLib_______________________638301e9ca876040518263ffffffff1660e01b8152600401610ada9190614246565b60206040518083038186803b158015610af257600080fd5b505af4158015610b06573d6000803e3d6000fd5b505050506040513d601f19601f82011682018060405250610b2a91908101906131c3565b610b69576040517f08c379a0000000000000000000000000000000000000000000000000000000008152600401610b60906147c2565b60405180910390fd5b73__TicketStructLib_______________________63038e363e866040518263ffffffff1660e01b8152600401610ba09190614848565b60206040518083038186803b158015610bb857600080fd5b505af4158015610bcc573d6000803e3d6000fd5b505050506040513d601f19601f82011682018060405250610bf091908101906131c3565b610c2f576040517f08c379a0000000000000000000000000000000000000000000000000000000008152600401610c2690614462565b60405180910390fd5b73__TicketStructLib_______________________63038e363e856040518263ffffffff1660e01b8152600401610c669190614848565b60206040518083038186803b158015610c7e57600080fd5b505af4158015610c92573d6000803e3d6000fd5b505050506040513d601f19601f82011682018060405250610cb691908101906131c3565b610cf5576040517f08c379a0000000000000000000000000000000000000000000000000000000008152600401610cec90614702565b60405180910390fd5b73__TicketStructLib_______________________63038e363e846040518263ffffffff1660e01b8152600401610d2c9190614848565b60206040518083038186803b158015610d4457600080fd5b505af4158015610d58573d6000803e3d6000fd5b505050506040513d601f19601f82011682018060405250610d7c91908101906131c3565b610dbb576040517f08c379a0000000000000000000000000000000000000000000000000000000008152600401610db290614442565b60405180910390fd5b73__TicketStructLib_______________________638301e9ca836040518263ffffffff1660e01b8152600401610df29190614246565b60206040518083038186803b158015610e0a57600080fd5b505af4158015610e1e573d6000803e3d6000fd5b505050506040513d601f19601f82011682018060405250610e4291908101906131c3565b610e81576040517f08c379a0000000000000000000000000000000000000000000000000000000008152600401610e78906144e2565b60405180910390fd5b610e89612ebb565b6040518061014001604052808a81526020018973ffffffffffffffffffffffffffffffffffffffff168152602001888152602001878152602001878152602001868152602001858152602001848152602001428152602001600081525090508060028a604051610ef991906141de565b90815260200160405180910390206000820151816000019080519060200190610f23929190612f24565b5060208201518160010160006101000a81548173ffffffffffffffffffffffffffffffffffffffff021916908373ffffffffffffffffffffffffffffffffffffffff1602179055506040820151816002019080519060200190610f87929190612f24565b50606082015181600301556080820151816004015560a0820151816005015560c0820151816006015560e0820151816007019080519060200190610fcc929190612f24565b5061010082015181600801556101208201518160090155905050505050505050505050565b6000610ffc82611e2a565b61103b576040517f08c379a000000000000000000000000000000000000000000000000000000000815260040161103290614762565b60405180910390fd5b600060038360405161104d91906141de565b908152602001604051809103902060090154119050919050565b6001602052806000526040600020600091509050806000018054600181600116156101000203166002900480601f0160208091040260200160405190810160405280929190818152602001828054600181600116156101000203166002900480156111135780601f106110e857610100808354040283529160200191611113565b820191906000526020600020905b8154815290600101906020018083116110f657829003601f168201915b5050505050908060010160009054906101000a900473ffffffffffffffffffffffffffffffffffffffff1690806002018054600181600116156101000203166002900480601f0160208091040260200160405190810160405280929190818152602001828054600181600116156101000203166002900480156111d75780601f106111ac576101008083540402835291602001916111d7565b820191906000526020600020905b8154815290600101906020018083116111ba57829003601f168201915b5050505050908060030154908060040154905085565b60006111f882611e2a565b611237576040517f08c379a000000000000000000000000000000000000000000000000000000000815260040161122e90614762565b60405180910390fd5b600060038360405161124991906141de565b908152602001604051809103902060050160149054906101000a900460ff1660ff16119050919050565b61127b612fa4565b61128482611e2a565b6112c3576040517f08c379a00000000000000000000000000000000000000000000000000000000081526004016112ba906145c2565b60405180910390fd5b6003826040516112d391906141de565b908152602001604051809103902060405180610180016040529081600082018054600181600116156101000203166002900480601f0160208091040260200160405190810160405280929190818152602001828054600181600116156101000203166002900480156113865780601f1061135b57610100808354040283529160200191611386565b820191906000526020600020905b81548152906001019060200180831161136957829003601f168201915b50505050508152602001600182018054600181600116156101000203166002900480601f0160208091040260200160405190810160405280929190818152602001828054600181600116156101000203166002900480156114285780601f106113fd57610100808354040283529160200191611428565b820191906000526020600020905b81548152906001019060200180831161140b57829003601f168201915b5050505050815260200160028201548152602001600382015481526020016004820160009054906101000a900473ffffffffffffffffffffffffffffffffffffffff1673ffffffffffffffffffffffffffffffffffffffff1673ffffffffffffffffffffffffffffffffffffffff1681526020016005820160009054906101000a900473ffffffffffffffffffffffffffffffffffffffff1673ffffffffffffffffffffffffffffffffffffffff1673ffffffffffffffffffffffffffffffffffffffff1681526020016005820160149054906101000a900460ff1660ff1660ff16815260200160068201548152602001600782015481526020016008820154815260200160098201548152602001600a820154815250509050919050565b61154f613034565b61155882612217565b611597576040517f08c379a000000000000000000000000000000000000000000000000000000000815260040161158e90614602565b60405180910390fd5b600160008373ffffffffffffffffffffffffffffffffffffffff1673ffffffffffffffffffffffffffffffffffffffff1681526020019081526020016000206040518060a0016040529081600082018054600181600116156101000203166002900480601f01602080910402602001604051908101604052809291908181526020018280546001816001161561010002031660029004801561167a5780601f1061164f5761010080835404028352916020019161167a565b820191906000526020600020905b81548152906001019060200180831161165d57829003601f168201915b505050505081526020016001820160009054906101000a900473ffffffffffffffffffffffffffffffffffffffff1673ffffffffffffffffffffffffffffffffffffffff1673ffffffffffffffffffffffffffffffffffffffff168152602001600282018054600181600116156101000203166002900480601f0160208091040260200160405190810160405280929190818152602001828054600181600116156101000203166002900480156117725780601f1061174757610100808354040283529160200191611772565b820191906000526020600020905b81548152906001019060200180831161175557829003601f168201915b50505050508152602001600382015481526020016004820154815250509050919050565b806117a081611e2a565b6117df576040517f08c379a00000000000000000000000000000000000000000000000000000000081526004016117d690614722565b60405180910390fd5b3373ffffffffffffffffffffffffffffffffffffffff1660058260405161180691906141de565b908152602001604051809103902060009054906101000a900473ffffffffffffffffffffffffffffffffffffffff1673ffffffffffffffffffffffffffffffffffffffff161461188b576040517f08c379a000000000000000000000000000000000000000000000000000000000815260040161188290614682565b60405180910390fd5b73__TicketStructLib_______________________638301e9ca836040518263ffffffff1660e01b81526004016118c29190614246565b60206040518083038186803b1580156118da57600080fd5b505af41580156118ee573d6000803e3d6000fd5b505050506040513d601f19601f8201168201806040525061191291908101906131c3565b611951576040517f08c379a000000000000000000000000000000000000000000000000000000000815260040161194890614722565b60405180910390fd5b61195a82612e16565b5050565b6000809054906101000a900473ffffffffffffffffffffffffffffffffffffffff1673ffffffffffffffffffffffffffffffffffffffff163373ffffffffffffffffffffffffffffffffffffffff16146119ed576040517f08c379a00000000000000000000000000000000000000000000000000000000081526004016119e4906145e2565b60405180910390fd5b73__TicketStructLib_______________________638301e9ca846040518263ffffffff1660e01b8152600401611a249190614246565b60206040518083038186803b158015611a3c57600080fd5b505af4158015611a50573d6000803e3d6000fd5b505050506040513d601f19601f82011682018060405250611a7491908101906131c3565b611ab3576040517f08c379a0000000000000000000000000000000000000000000000000000000008152600401611aaa90614482565b60405180910390fd5b611abc82612217565b15611afc576040517f08c379a0000000000000000000000000000000000000000000000000000000008152600401611af390614582565b60405180910390fd5b73__TicketStructLib_______________________638301e9ca826040518263ffffffff1660e01b8152600401611b339190614246565b60206040518083038186803b158015611b4b57600080fd5b505af4158015611b5f573d6000803e3d6000fd5b505050506040513d601f19601f82011682018060405250611b8391908101906131c3565b611bc2576040517f08c379a0000000000000000000000000000000000000000000000000000000008152600401611bb9906144c2565b60405180910390fd5b611bca613034565b6040518060a001604052808581526020018473ffffffffffffffffffffffffffffffffffffffff1681526020018381526020014281526020016000815250905080600160008573ffffffffffffffffffffffffffffffffffffffff1673ffffffffffffffffffffffffffffffffffffffff1681526020019081526020016000206000820151816000019080519060200190611c66929190612f24565b5060208201518160010160006101000a81548173ffffffffffffffffffffffffffffffffffffffff021916908373ffffffffffffffffffffffffffffffffffffffff1602179055506040820151816002019080519060200190611cca929190612f24565b50606082015181600301556080820151816004015590505050505050565b600073__TicketStructLib_______________________638301e9ca836040518263ffffffff1660e01b8152600401611d219190614246565b60206040518083038186803b158015611d3957600080fd5b505af4158015611d4d573d6000803e3d6000fd5b505050506040513d601f19601f82011682018060405250611d7191908101906131c3565b611db0576040517f08c379a0000000000000000000000000000000000000000000000000000000008152600401611da7906146a2565b60405180910390fd5b6000600283604051611dc291906141de565b908152602001604051809103902060080154119050919050565b60008060009054906101000a900473ffffffffffffffffffffffffffffffffffffffff16905090565b6000809054906101000a900473ffffffffffffffffffffffffffffffffffffffff1681565b600073__TicketStructLib_______________________638301e9ca836040518263ffffffff1660e01b8152600401611e639190614246565b60206040518083038186803b158015611e7b57600080fd5b505af4158015611e8f573d6000803e3d6000fd5b505050506040513d601f19601f82011682018060405250611eb391908101906131c3565b611ef2576040517f08c379a0000000000000000000000000000000000000000000000000000000008152600401611ee990614722565b60405180910390fd5b6000600383604051611f0491906141de565b9081526020016040518091039020600a0154119050919050565b611f26612ebb565b611f2f82611ce8565b611f6e576040517f08c379a0000000000000000000000000000000000000000000000000000000008152600401611f6590614542565b60405180910390fd5b600282604051611f7e91906141de565b908152602001604051809103902060405180610140016040529081600082018054600181600116156101000203166002900480601f0160208091040260200160405190810160405280929190818152602001828054600181600116156101000203166002900480156120315780601f1061200657610100808354040283529160200191612031565b820191906000526020600020905b81548152906001019060200180831161201457829003601f168201915b505050505081526020016001820160009054906101000a900473ffffffffffffffffffffffffffffffffffffffff1673ffffffffffffffffffffffffffffffffffffffff1673ffffffffffffffffffffffffffffffffffffffff168152602001600282018054600181600116156101000203166002900480601f0160208091040260200160405190810160405280929190818152602001828054600181600116156101000203166002900480156121295780601f106120fe57610100808354040283529160200191612129565b820191906000526020600020905b81548152906001019060200180831161210c57829003601f168201915b5050505050815260200160038201548152602001600482015481526020016005820154815260200160068201548152602001600782018054600181600116156101000203166002900480601f0160208091040260200160405190810160405280929190818152602001828054600181600116156101000203166002900480156121f35780601f106121c8576101008083540402835291602001916121f3565b820191906000526020600020905b8154815290600101906020018083116121d657829003601f168201915b50505050508152602001600882015481526020016009820154815250509050919050565b600073__TicketStructLib_______________________63143e4c6e836040518263ffffffff1660e01b81526004016122509190614210565b60206040518083038186803b15801561226857600080fd5b505af415801561227c573d6000803e3d6000fd5b505050506040513d601f19601f820116820180604052506122a091908101906131c3565b6122df576040517f08c379a00000000000000000000000000000000000000000000000000000000081526004016122d690614662565b60405180910390fd5b6000600160008473ffffffffffffffffffffffffffffffffffffffff1673ffffffffffffffffffffffffffffffffffffffff16815260200190815260200160002060030154119050919050565b6005818051602081018201805184825260208301602085012081835280955050505050506000915054906101000a900473ffffffffffffffffffffffffffffffffffffffff1681565b6004818051602081018201805184825260208301602085012081835280955050505050506000915054906101000a900473ffffffffffffffffffffffffffffffffffffffff1681565b600281805160208101820180518482526020830160208501208183528095505050505050600091509050806000018054600181600116156101000203166002900480601f0160208091040260200160405190810160405280929190818152602001828054600181600116156101000203166002900480156124805780601f1061245557610100808354040283529160200191612480565b820191906000526020600020905b81548152906001019060200180831161246357829003601f168201915b5050505050908060010160009054906101000a900473ffffffffffffffffffffffffffffffffffffffff1690806002018054600181600116156101000203166002900480601f0160208091040260200160405190810160405280929190818152602001828054600181600116156101000203166002900480156125445780601f1061251957610100808354040283529160200191612544565b820191906000526020600020905b81548152906001019060200180831161252757829003601f168201915b505050505090806003015490806004015490806005015490806006015490806007018054600181600116156101000203166002900480601f0160208091040260200160405190810160405280929190818152602001828054600181600116156101000203166002900480156125fa5780601f106125cf576101008083540402835291602001916125fa565b820191906000526020600020905b8154815290600101906020018083116125dd57829003601f168201915b505050505090806008015490806009015490508a565b833373ffffffffffffffffffffffffffffffffffffffff1660028260405161263891906141de565b908152602001604051809103902060010160009054906101000a900473ffffffffffffffffffffffffffffffffffffffff1673ffffffffffffffffffffffffffffffffffffffff16146126c0576040517f08c379a00000000000000000000000000000000000000000000000000000000081526004016126b7906145a2565b60405180910390fd5b73__TicketStructLib_______________________638301e9ca876040518263ffffffff1660e01b81526004016126f79190614246565b60206040518083038186803b15801561270f57600080fd5b505af4158015612723573d6000803e3d6000fd5b505050506040513d601f19601f8201168201806040525061274791908101906131c3565b612786576040517f08c379a000000000000000000000000000000000000000000000000000000000815260040161277d90614722565b60405180910390fd5b73__TicketStructLib_______________________638301e9ca866040518263ffffffff1660e01b81526004016127bd9190614246565b60206040518083038186803b1580156127d557600080fd5b505af41580156127e9573d6000803e3d6000fd5b505050506040513d601f19601f8201168201806040525061280d91908101906131c3565b61284c576040517f08c379a000000000000000000000000000000000000000000000000000000000815260040161284390614502565b60405180910390fd5b73__TicketStructLib_______________________63143e4c6e856040518263ffffffff1660e01b81526004016128839190614210565b60206040518083038186803b15801561289b57600080fd5b505af41580156128af573d6000803e3d6000fd5b505050506040513d601f19601f820116820180604052506128d391908101906131c3565b612912576040517f08c379a000000000000000000000000000000000000000000000000000000000815260040161290990614562565b60405180910390fd5b73__TicketStructLib_______________________63143e4c6e846040518263ffffffff1660e01b81526004016129499190614210565b60206040518083038186803b15801561296157600080fd5b505af4158015612975573d6000803e3d6000fd5b505050506040513d601f19601f8201168201806040525061299991908101906131c3565b6129d8576040517f08c379a00000000000000000000000000000000000000000000000000000000081526004016129cf906144a2565b60405180910390fd5b73__TicketStructLib_______________________63038e363e836040518263ffffffff1660e01b8152600401612a0f9190614863565b60206040518083038186803b158015612a2757600080fd5b505af4158015612a3b573d6000803e3d6000fd5b505050506040513d601f19601f82011682018060405250612a5f91908101906131c3565b612a9e576040517f08c379a0000000000000000000000000000000000000000000000000000000008152600401612a9590614522565b60405180910390fd5b60008260ff1611612ae4576040517f08c379a0000000000000000000000000000000000000000000000000000000008152600401612adb90614782565b60405180910390fd5b6000600286604051612af691906141de565b908152602001604051809103902090506000816004015411612b4d576040517f08c379a0000000000000000000000000000000000000000000000000000000008152600401612b44906147a2565b60405180910390fd5b612b55612fa4565b60405180610180016040528089815260200188815260200183600501548152602001836006015481526020018773ffffffffffffffffffffffffffffffffffffffff1681526020018673ffffffffffffffffffffffffffffffffffffffff168152602001600a60ff1681526020014281526020018560ff1681526020016001860260ff16420181526020016000815260200142815250905080600389604051612bfe91906141de565b90815260200160405180910390206000820151816000019080519060200190612c28929190612f24565b506020820151816001019080519060200190612c45929190612f24565b50604082015181600201556060820151816003015560808201518160040160006101000a81548173ffffffffffffffffffffffffffffffffffffffff021916908373ffffffffffffffffffffffffffffffffffffffff16021790555060a08201518160050160006101000a81548173ffffffffffffffffffffffffffffffffffffffff021916908373ffffffffffffffffffffffffffffffffffffffff16021790555060c08201518160050160146101000a81548160ff021916908360ff16021790555060e0820151816006015561010082015181600701556101208201518160080155610140820151816009015561016082015181600a015590505085600489604051612d5391906141de565b908152602001604051809103902060006101000a81548173ffffffffffffffffffffffffffffffffffffffff021916908373ffffffffffffffffffffffffffffffffffffffff16021790555084600589604051612db091906141de565b908152602001604051809103902060006101000a81548173ffffffffffffffffffffffffffffffffffffffff021916908373ffffffffffffffffffffffffffffffffffffffff160217905550600182600401540382600401819055505050505050505050565b6000600382604051612e2891906141de565b908152602001604051809103902090506000816009015414612e7f576040517f08c379a0000000000000000000000000000000000000000000000000000000008152600401612e7690614742565b60405180910390fd5b8060080154421015612e9057600080fd5b60008160050160146101000a81548160ff021916908360ff1602179055504281600901819055505050565b60405180610140016040528060608152602001600073ffffffffffffffffffffffffffffffffffffffff16815260200160608152602001600081526020016000815260200160008152602001600081526020016060815260200160008152602001600081525090565b828054600181600116156101000203166002900490600052602060002090601f016020900481019282601f10612f6557805160ff1916838001178555612f93565b82800160010185558215612f93579182015b82811115612f92578251825591602001919060010190612f77565b5b509050612fa09190613079565b5090565b60405180610180016040528060608152602001606081526020016000815260200160008152602001600073ffffffffffffffffffffffffffffffffffffffff168152602001600073ffffffffffffffffffffffffffffffffffffffff168152602001600060ff16815260200160008152602001600081526020016000815260200160008152602001600081525090565b6040518060a0016040528060608152602001600073ffffffffffffffffffffffffffffffffffffffff1681526020016060815260200160008152602001600081525090565b61309b91905b8082111561309757600081600090555060010161307f565b5090565b90565b6000813590506130ad81614a11565b92915050565b6000815190506130c281614a28565b92915050565b600082601f8301126130d957600080fd5b81356130ec6130e7826148ab565b61487e565b9150808252602083016020830185838301111561310857600080fd5b6131138382846149be565b50505092915050565b600082601f83011261312d57600080fd5b813561314061313b826148d7565b61487e565b9150808252602083016020830185838301111561315c57600080fd5b6131678382846149be565b50505092915050565b60008135905061317f81614a3f565b92915050565b60008135905061319481614a56565b92915050565b6000602082840312156131ac57600080fd5b60006131ba8482850161309e565b91505092915050565b6000602082840312156131d557600080fd5b60006131e3848285016130b3565b91505092915050565b6000602082840312156131fe57600080fd5b600082013567ffffffffffffffff81111561321857600080fd5b613224848285016130c8565b91505092915050565b60006020828403121561323f57600080fd5b600082013567ffffffffffffffff81111561325957600080fd5b6132658482850161311c565b91505092915050565b6000806040838503121561328157600080fd5b600083013567ffffffffffffffff81111561329b57600080fd5b6132a78582860161311c565b92505060206132b88582860161309e565b9150509250929050565b6000806000606084860312156132d757600080fd5b600084013567ffffffffffffffff8111156132f157600080fd5b6132fd8682870161311c565b935050602061330e8682870161309e565b925050604084013567ffffffffffffffff81111561332b57600080fd5b6133378682870161311c565b9150509250925092565b600080600080600080600060e0888a03121561335c57600080fd5b600088013567ffffffffffffffff81111561337657600080fd5b6133828a828b0161311c565b97505060206133938a828b0161309e565b965050604088013567ffffffffffffffff8111156133b057600080fd5b6133bc8a828b0161311c565b95505060606133cd8a828b01613170565b94505060806133de8a828b01613170565b93505060a06133ef8a828b01613170565b92505060c088013567ffffffffffffffff81111561340c57600080fd5b6134188a828b0161311c565b91505092959891949750929550565b600080600080600060a0868803121561343f57600080fd5b600086013567ffffffffffffffff81111561345957600080fd5b6134658882890161311c565b955050602086013567ffffffffffffffff81111561348257600080fd5b61348e8882890161311c565b945050604061349f8882890161309e565b93505060606134b08882890161309e565b92505060806134c188828901613185565b9150509295509295909350565b6134d781614957565b82525050565b6134e681614957565b82525050565b6134f581614957565b82525050565b61350481614969565b82525050565b60006135158261490e565b61351f818561493b565b935061352f8185602086016149cd565b61353881614a00565b840191505092915050565b600061354e8261490e565b613558818561494c565b93506135688185602086016149cd565b80840191505092915050565b600061357f82614903565b6135898185614919565b93506135998185602086016149cd565b6135a281614a00565b840191505092915050565b60006135b882614903565b6135c2818561492a565b93506135d28185602086016149cd565b6135db81614a00565b840191505092915050565b60006135f360108361492a565b91507f696e76616c69642073686f7754696d65000000000000000000000000000000006000830152602082019050919050565b6000613633601c8361492a565b91507f696e76616c696420746f74616c4e756d6265724f665469636b657473000000006000830152602082019050919050565b600061367360108361492a565b91507f696e76616c6964206973737565724964000000000000000000000000000000006000830152602082019050919050565b60006136b360188361492a565b91507f696e76616c696420637573746f6d6572204164647265737300000000000000006000830152602082019050919050565b60006136f360128361492a565b91507f696e76616c6964206973737565724e616d6500000000000000000000000000006000830152602082019050919050565b600061373360158361492a565b91507f696e76616c69642073686f7754696d654173474d5400000000000000000000006000830152602082019050919050565b6000613773600e8361492a565b91507f696e76616c69642073686f7749640000000000000000000000000000000000006000830152602082019050919050565b60006137b360188361492a565b91507f696e76616c696420756e6c6f636b446174652076616c756500000000000000006000830152602082019050919050565b60006137f360238361492a565b91507f73686f7720646f65736e6f74206578697374207769746820746869732073686f60008301527f77496400000000000000000000000000000000000000000000000000000000006020830152604082019050919050565b600061385960168361492a565b91507f696e76616c6964206973737565722041646472657373000000000000000000006000830152602082019050919050565b600061389960348361492a565b91507f41205469636b657449737375657220697320616c72656164792063726561746560008301527f64207769746820746869732069737375657249640000000000000000000000006020830152604082019050919050565b60006138ff60288361492a565b91507f6f6e6c792053686f77204973737565722063616e20696e766f6b65207468652060008301527f66756e6374696f6e0000000000000000000000000000000000000000000000006020830152604082019050919050565b6000613965602e8361492a565b91507f5469636b6574426f6f6b696e6720646f65736e6f74206578697374207769746860008301527f2074686973207469636b657449640000000000000000000000000000000000006020830152604082019050919050565b60006139cb60228361492a565b91507f6f6e6c79204f776e65722063616e20696e766f6b65207468652066756e63746960008301527f6f6e0000000000000000000000000000000000000000000000000000000000006020830152604082019050919050565b6000613a3160328361492a565b91507f5469636b657449737375657220646f65736e6f7420657869737420776974682060008301527f74686973206973737565724164647265737300000000000000000000000000006020830152604082019050919050565b6000613a9760148361492a565b91507f49737375657220646f65736e6f742065786973740000000000000000000000006000830152602082019050919050565b6000613ad760518361492a565b91507f5469636b65744973737565722043616e206372656174652053686f777320666f60008301527f72207468652053656c662e2043616e6e6f74206372656174652073686f77732060208301527f666f72206f7468657220497373756572730000000000000000000000000000006040830152606082019050919050565b6000613b6360188361492a565b91507f6973737565724164647265737320697320496e76616c696400000000000000006000830152602082019050919050565b6000613ba360278361492a565b91507f6d6573736167652073656e646572206973206e6f7420746865207469636b657460008301527f2d686f6c646572000000000000000000000000000000000000000000000000006020830152604082019050919050565b6000613c0960118361492a565b91507f73686f77496420697320496e76616c69640000000000000000000000000000006000830152602082019050919050565b6000613c4960258361492a565b91507f6e6f7420417574686f72697a656420746f20496e766f6b65207468652066756e60008301527f6374696f6e0000000000000000000000000000000000000000000000000000006020830152604082019050919050565b6000613caf602a8361492a565b91507f412053686f7720697320616c726561647920637265617465642077697468207460008301527f6869732073686f774964000000000000000000000000000000000000000000006020830152604082019050919050565b6000613d1560118361492a565b91507f696e76616c69642073686f7750726963650000000000000000000000000000006000830152602082019050919050565b6000613d5560108361492a565b91507f696e76616c6964207469636b65744964000000000000000000000000000000006000830152602082019050919050565b6000613d9560198361492a565b91507f5469636b657420697320616c726561647920436c61696d6564000000000000006000830152602082019050919050565b6000613dd560148361492a565b91507f7469636b657420646f65736e6f742065786973740000000000000000000000006000830152602082019050919050565b6000613e15602f8361492a565b91507f6c6f636b506572696f64496e5365636f6e64732073686f756c6420626520612060008301527f706f736974697665206e756d62657200000000000000000000000000000000006020830152604082019050919050565b6000613e7b60228361492a565b91507f5469636b657473206e6f7420417661696c61626c6520666f722074686520536860008301527f6f770000000000000000000000000000000000000000000000000000000000006020830152604082019050919050565b6000613ee160108361492a565b91507f696e76616c69642073686f774e616d65000000000000000000000000000000006000830152602082019050919050565b600060a0830160008301518482036000860152613f318282613574565b9150506020830151613f4660208601826134ce565b5060408301518482036040860152613f5e8282613574565b9150506060830151613f736060860182614184565b506080830151613f866080860182614184565b508091505092915050565b6000610140830160008301518482036000860152613faf8282613574565b9150506020830151613fc460208601826134ce565b5060408301518482036040860152613fdc8282613574565b9150506060830151613ff16060860182614184565b5060808301516140046080860182614184565b5060a083015161401760a0860182614184565b5060c083015161402a60c0860182614184565b5060e083015184820360e08601526140428282613574565b915050610100830151614059610100860182614184565b5061012083015161406e610120860182614184565b508091505092915050565b60006101808301600083015184820360008601526140978282613574565b915050602083015184820360208601526140b18282613574565b91505060408301516140c66040860182614184565b5060608301516140d96060860182614184565b5060808301516140ec60808601826134ce565b5060a08301516140ff60a08601826134ce565b5060c083015161411260c08601826141c0565b5060e083015161412560e0860182614184565b5061010083015161413a610100860182614184565b5061012083015161414f610120860182614184565b50610140830151614164610140860182614184565b50610160830151614179610160860182614184565b508091505092915050565b61418d81614995565b82525050565b61419c81614995565b82525050565b6141ab81614995565b82525050565b6141ba816149ac565b82525050565b6141c98161499f565b82525050565b6141d88161499f565b82525050565b60006141ea8284613543565b915081905092915050565b600060208201905061420a60008301846134dd565b92915050565b600060208201905061422560008301846134ec565b92915050565b600060208201905061424060008301846134fb565b92915050565b60006020820190508181036000830152614260818461350a565b905092915050565b600060a082019050818103600083015261428281886135ad565b905061429160208301876134dd565b81810360408301526142a381866135ad565b90506142b26060830185614193565b6142bf6080830184614193565b9695505050505050565b60006101408201905081810360008301526142e4818d6135ad565b90506142f3602083018c6134dd565b8181036040830152614305818b6135ad565b9050614314606083018a614193565b6143216080830189614193565b61432e60a0830188614193565b61433b60c0830187614193565b81810360e083015261434d81866135ad565b905061435d610100830185614193565b61436b610120830184614193565b9b9a5050505050505050505050565b6000610180820190508181036000830152614395818f6135ad565b905081810360208301526143a9818e6135ad565b90506143b8604083018d614193565b6143c5606083018c614193565b6143d2608083018b6134dd565b6143df60a083018a6134dd565b6143ec60c08301896141cf565b6143f960e0830188614193565b614407610100830187614193565b614415610120830186614193565b614423610140830185614193565b614431610160830184614193565b9d9c50505050505050505050505050565b6000602082019050818103600083015261445b816135e6565b9050919050565b6000602082019050818103600083015261447b81613626565b9050919050565b6000602082019050818103600083015261449b81613666565b9050919050565b600060208201905081810360008301526144bb816136a6565b9050919050565b600060208201905081810360008301526144db816136e6565b9050919050565b600060208201905081810360008301526144fb81613726565b9050919050565b6000602082019050818103600083015261451b81613766565b9050919050565b6000602082019050818103600083015261453b816137a6565b9050919050565b6000602082019050818103600083015261455b816137e6565b9050919050565b6000602082019050818103600083015261457b8161384c565b9050919050565b6000602082019050818103600083015261459b8161388c565b9050919050565b600060208201905081810360008301526145bb816138f2565b9050919050565b600060208201905081810360008301526145db81613958565b9050919050565b600060208201905081810360008301526145fb816139be565b9050919050565b6000602082019050818103600083015261461b81613a24565b9050919050565b6000602082019050818103600083015261463b81613a8a565b9050919050565b6000602082019050818103600083015261465b81613aca565b9050919050565b6000602082019050818103600083015261467b81613b56565b9050919050565b6000602082019050818103600083015261469b81613b96565b9050919050565b600060208201905081810360008301526146bb81613bfc565b9050919050565b600060208201905081810360008301526146db81613c3c565b9050919050565b600060208201905081810360008301526146fb81613ca2565b9050919050565b6000602082019050818103600083015261471b81613d08565b9050919050565b6000602082019050818103600083015261473b81613d48565b9050919050565b6000602082019050818103600083015261475b81613d88565b9050919050565b6000602082019050818103600083015261477b81613dc8565b9050919050565b6000602082019050818103600083015261479b81613e08565b9050919050565b600060208201905081810360008301526147bb81613e6e565b9050919050565b600060208201905081810360008301526147db81613ed4565b9050919050565b600060208201905081810360008301526147fc8184613f14565b905092915050565b6000602082019050818103600083015261481e8184613f91565b905092915050565b600060208201905081810360008301526148408184614079565b905092915050565b600060208201905061485d60008301846141a2565b92915050565b600060208201905061487860008301846141b1565b92915050565b6000604051905081810181811067ffffffffffffffff821117156148a157600080fd5b8060405250919050565b600067ffffffffffffffff8211156148c257600080fd5b601f19601f8301169050602081019050919050565b600067ffffffffffffffff8211156148ee57600080fd5b601f19601f8301169050602081019050919050565b600081519050919050565b600081519050919050565b600082825260208201905092915050565b600082825260208201905092915050565b600082825260208201905092915050565b600081905092915050565b600061496282614975565b9050919050565b60008115159050919050565b600073ffffffffffffffffffffffffffffffffffffffff82169050919050565b6000819050919050565b600060ff82169050919050565b60006149b78261499f565b9050919050565b82818337600083830152505050565b60005b838110156149eb5780820151818401526020810190506149d0565b838111156149fa576000848401525b50505050565b6000601f19601f8301169050919050565b614a1a81614957565b8114614a2557600080fd5b50565b614a3181614969565b8114614a3c57600080fd5b50565b614a4881614995565b8114614a5357600080fd5b50565b614a5f8161499f565b8114614a6a57600080fd5b5056fea365627a7a723158203f807688c5548be1a05b6c2e67eba808e84dd51cd29cc5aa39ee8b5fcfbc8bd16c6578706572696d656e74616cf564736f6c63430005100040",
  "source": "pragma solidity >=0.4.21 <=0.6.10;\npragma experimental ABIEncoderV2;\nimport \"./interfaces/TicketStructLib.sol\";\n\ncontract TicketBookingSystem {\n\n    address public owner;\n\n    constructor(\n        address _owner\n    ) public {\n        owner = _owner;\n    }\n\n    //storage variables for Issuers\n\n    // issuerAddress -> Issuer\n    mapping(address => TicketStructLib.Issuer) public issuerMap;\n\n    //storage variables for shows\n\n    // mapping for: showId -> Show\n    mapping(string => TicketStructLib.Show) public showMap;\n\n    //storage variables for ticket\n\n    // ticketId -> TicketBooking\n    mapping(string => TicketStructLib.TicketBooking) public ticketBookingMap;\n\n    // ticketId -> issuerAddress \n    mapping(string => address) public ticketBookingIssuerMap;\n\n    // ticketId -> customerAddress\n    // ticketId is considered as Unique. i.e multiple shows wont share same ticketId\n    mapping(string => address) public ticketBookingCustomerMap;\n\n    modifier onlyOwner {\n        require(msg.sender == owner, \"only Owner can invoke the function\");\n        _;\n    }\n\n    function getOwner() public view returns(address){\n        return owner;\n    }\n\n    modifier isIssuerAuthorised(address issuerAddress){\n        require(issuerMap[msg.sender].issuerAddress == issuerAddress , \"not Authorized to Invoke the function\");\n        _;\n    }\n\n    modifier isAnIssuerOfAShow(string memory _showId){\n         require(showMap[_showId].issuer == msg.sender , \"only Show Issuer can invoke the function\");\n        _;\n    }\n\n    function addATicketIssuer(string memory _issuerId, address _issuerAddress, string memory _issuerName) onlyOwner public  {\n        require(TicketStructLib.isANonEmptyString(_issuerId), \"invalid issuerId\");\n        require(!doesIssuerExist(_issuerAddress), \"A TicketIssuer is already created with this issuerId\" );\n        require(TicketStructLib.isANonEmptyString(_issuerName), \"invalid issuerName\");\n        TicketStructLib.Issuer memory issuerObjectForPersistence;\n        issuerObjectForPersistence = TicketStructLib.Issuer({\n                                                        issuerId : _issuerId,\n                                                        issuerAddress: _issuerAddress,\n                                                        issuerName : _issuerName,\n                                                        createdAt : now,\n                                                        updatedAt : 0});\n        issuerMap[_issuerAddress] = issuerObjectForPersistence;\n    }\n\n    function getTicketIssuerDetails(address _issuerAddress) public view returns(TicketStructLib.Issuer memory issuer){\n        require(doesIssuerExist(_issuerAddress), \"TicketIssuer doesnot exist with this issuerAddress\");\n        return issuerMap[_issuerAddress];\n    }\n\n    function doesIssuerExist(address _issuerAddress) public view returns(bool){\n        require(TicketStructLib.isAValidAddress(_issuerAddress), \"issuerAddress is Invalid\");\n        return issuerMap[_issuerAddress].createdAt > 0;\n    }\n\n    function createAShow(\n        string memory _showId,\n        address _issuer,\n        string memory _showName,\n        uint256 _totalNumberOfTickets,\n        uint256 _showPrice,\n        uint256 _showTime,\n        string memory _showTimeAsGMT\n        ) isIssuerAuthorised(_issuer) public {\n        require(TicketStructLib.isANonEmptyString(_showId), \"invalid showId\");\n        require(doesIssuerExist(_issuer), \"Issuer doesnot exist\" );\n        require(msg.sender == _issuer , \"TicketIssuer Can create Shows for the Self. Cannot create shows for other Issuers\");\n        require(!doesShowExist(_showId), \"A Show is already created with this showId\" );\n        require(TicketStructLib.isANonEmptyString(_showName), \"invalid showName\");\n        require(TicketStructLib.isAValidInteger(_totalNumberOfTickets), \"invalid totalNumberOfTickets\");\n        require(TicketStructLib.isAValidInteger(_showPrice), \"invalid showPrice\");\n        require(TicketStructLib.isAValidInteger(_showTime), \"invalid showTime\");\n        require(TicketStructLib.isANonEmptyString(_showTimeAsGMT), \"invalid showTimeAsGMT\");\n\n        TicketStructLib.Show memory showObjectForPersistence;\n        showObjectForPersistence = TicketStructLib.Show({\n                                                        showId : _showId,\n                                                        issuer: _issuer,\n                                                        showName : _showName,\n                                                        totalNumberOfTickets: _totalNumberOfTickets,\n                                                        availableTicketCount: _totalNumberOfTickets,\n                                                        showPrice : _showPrice,\n                                                        showTime : _showTime,\n                                                        showTimeAsGMT : _showTimeAsGMT,\n                                                        createdAt : now,\n                                                        updatedAt : 0});\n        showMap[_showId] = showObjectForPersistence;\n    }\n\n    function getShowDetails(string memory _showId) public view returns(TicketStructLib.Show memory show){\n        require(doesShowExist(_showId), \"show doesnot exist with this showId\");\n        return showMap[_showId];\n    }\n    \n    function doesShowExist(string memory _showId) public view returns(bool){\n        require(TicketStructLib.isANonEmptyString(_showId), \"showId is Invalid\");\n        return showMap[_showId].createdAt > 0;\n    }\n\n    modifier onlyTicketCustomer(string memory _ticketId) {\n        require(doesTicketExist(_ticketId), \"invalid ticketId\");\n        require(ticketBookingCustomerMap[_ticketId] == msg.sender, \"message sender is not the ticket-holder\");\n        _;\n    }\n\n    //create a New TicketBooking & Add mapping for TicketBooking\n    //Mark ticket as Locked\n    function bookATicket(\n        string memory _ticketId,\n        string memory _showId,\n        address _issuer,\n        address _customer,\n        uint8 _lockPeriodInSeconds) isAnIssuerOfAShow(_showId) public {\n        require(TicketStructLib.isANonEmptyString(_ticketId), \"invalid ticketId\");\n        require(TicketStructLib.isANonEmptyString(_showId), \"invalid showId\");\n        require(TicketStructLib.isAValidAddress(_issuer), \"invalid issuer Address\");\n        require(TicketStructLib.isAValidAddress(_customer), \"invalid customer Address\");\n        require(TicketStructLib.isAValidInteger(_lockPeriodInSeconds), \"invalid unlockDate value\");\n        require(_lockPeriodInSeconds > 0, \"lockPeriodInSeconds should be a positive number\");\n\n        TicketStructLib.Show storage showObjectFromStorage = showMap[_showId];\n        require(showObjectFromStorage.availableTicketCount>0, \"Tickets not Available for the Show\");\n\n        TicketStructLib.TicketBooking memory ticketBookingObjectForPersistence;\n\n        ticketBookingObjectForPersistence = TicketStructLib.TicketBooking({\n                                                        ticketId : _ticketId,\n                                                        showId : _showId,\n                                                        showPrice : showObjectFromStorage.showPrice,\n                                                        showTime : showObjectFromStorage.showTime,\n                                                        issuer: _issuer,\n                                                        customer: _customer,\n                                                        isLocked: 10,\n                                                        lockedAt: now,\n                                                        lockPeriodInSeconds: _lockPeriodInSeconds,\n                                                        claimableFrom: now + _lockPeriodInSeconds * 1 seconds,\n                                                        claimedAt: 0,\n                                                        createdAt : now});\n\n        ticketBookingMap[_ticketId] = ticketBookingObjectForPersistence;\n        ticketBookingIssuerMap[_ticketId] = _issuer;\n        ticketBookingCustomerMap[_ticketId] = _customer;\n        showObjectFromStorage.availableTicketCount = showObjectFromStorage.availableTicketCount-1;\n    }\n\n    function getTicketBookingDetails(string memory _ticketId) public view returns(TicketStructLib.TicketBooking memory ticketBooking){\n        require(doesTicketExist(_ticketId), \"TicketBooking doesnot exist with this ticketId\");\n        return ticketBookingMap[_ticketId];\n    }\n\n    function claimATicket(string memory _ticketId) onlyTicketCustomer(_ticketId) public {\n        require(TicketStructLib.isANonEmptyString(_ticketId), \"invalid ticketId\");\n        _claimTicket(_ticketId);\n    }\n\n    function _claimTicket(string memory _ticketId) internal {\n        TicketStructLib.TicketBooking storage ticketBookingObject = ticketBookingMap[_ticketId];\n        require(ticketBookingObject.claimedAt == 0 , \"Ticket is already Claimed\");\n        require(now >= ticketBookingObject.claimableFrom);\n        ticketBookingObject.isLocked = 0;\n        ticketBookingObject.claimedAt = now;\n    }\n\n    function doesTicketExist(string memory _ticketId) public view returns(bool){\n        require(TicketStructLib.isANonEmptyString(_ticketId), \"invalid ticketId\");\n        return ticketBookingMap[_ticketId].createdAt > 0;\n    }\n\n    function isTickedLockedForCustomer(string memory _ticketId, address _customer) public returns (bool) {\n        require(doesTicketExist(_ticketId), \"invalid ticketId\");\n        require(TicketStructLib.isAValidAddress(_customer), \"invalid customer Address\");\n        return ticketBookingCustomerMap[_ticketId] == _customer;\n    }\n\n    function isTicketClaimed(string memory _ticketId) public returns(bool){\n        require(doesTicketExist(_ticketId), \"ticket doesnot exist\");\n        return ticketBookingMap[_ticketId].claimedAt > 0;\n    }\n\n    function isTicketLocked(string memory _ticketId) public returns(bool){\n        require(doesTicketExist(_ticketId), \"ticket doesnot exist\");\n        return ticketBookingMap[_ticketId].isLocked > 0;\n    }\n}",
  "sourcePath": "/Users/lakshmikanth/Documents/biconomy/onlineticketbooking/contracts/TicketBookingSystem.sol",
  "compiler": {
    "name": "solc",
    "version": "0.5.16+commit.9c3226ce.Emscripten.clang"
  },
  "schemaVersion": "3.2.0",
  "updatedAt": "2020-12-12T18:07:49.415Z",
  "networkType": "ethereum",
  "devdoc": {
    "methods": {}
  },
  "userdoc": {
    "methods": {}
  }
}